{
  "_format": "hh3-artifact-1",
  "contractName": "LetsPayHBAR_V1_UUPS",
  "sourceName": "contracts/LetsPayHBAR_V1_UUPS.sol",
  "abi": [
    {
      "inputs": [],
      "stateMutability": "nonpayable",
      "type": "constructor"
    },
    {
      "anonymous": false,
      "inputs": [
        {
          "indexed": true,
          "internalType": "address",
          "name": "from",
          "type": "address"
        },
        {
          "indexed": false,
          "internalType": "uint256",
          "name": "amount",
          "type": "uint256"
        }
      ],
      "name": "ContractFunded",
      "type": "event"
    },
    {
      "anonymous": false,
      "inputs": [
        {
          "indexed": true,
          "internalType": "address",
          "name": "user",
          "type": "address"
        },
        {
          "indexed": false,
          "internalType": "uint256",
          "name": "amount",
          "type": "uint256"
        }
      ],
      "name": "CreditRepaid",
      "type": "event"
    },
    {
      "anonymous": false,
      "inputs": [
        {
          "indexed": true,
          "internalType": "uint256",
          "name": "id",
          "type": "uint256"
        },
        {
          "indexed": true,
          "internalType": "address",
          "name": "host",
          "type": "address"
        },
        {
          "indexed": true,
          "internalType": "address",
          "name": "merchant",
          "type": "address"
        },
        {
          "indexed": false,
          "internalType": "uint256",
          "name": "total",
          "type": "uint256"
        }
      ],
      "name": "EscrowCreated",
      "type": "event"
    },
    {
      "anonymous": false,
      "inputs": [
        {
          "indexed": true,
          "internalType": "uint256",
          "name": "id",
          "type": "uint256"
        }
      ],
      "name": "EscrowSettled",
      "type": "event"
    },
    {
      "anonymous": false,
      "inputs": [
        {
          "indexed": true,
          "internalType": "uint256",
          "name": "id",
          "type": "uint256"
        },
        {
          "indexed": false,
          "internalType": "address",
          "name": "merchant",
          "type": "address"
        },
        {
          "indexed": false,
          "internalType": "uint256",
          "name": "total",
          "type": "uint256"
        }
      ],
      "name": "MerchantPaid",
      "type": "event"
    },
    {
      "anonymous": false,
      "inputs": [
        {
          "indexed": true,
          "internalType": "uint256",
          "name": "id",
          "type": "uint256"
        },
        {
          "indexed": false,
          "internalType": "address",
          "name": "participant",
          "type": "address"
        },
        {
          "indexed": false,
          "internalType": "uint256",
          "name": "amount",
          "type": "uint256"
        }
      ],
      "name": "ParticipantAccepted",
      "type": "event"
    },
    {
      "anonymous": false,
      "inputs": [
        {
          "indexed": true,
          "internalType": "address",
          "name": "user",
          "type": "address"
        },
        {
          "indexed": false,
          "internalType": "uint256",
          "name": "amount",
          "type": "uint256"
        }
      ],
      "name": "SignedUp",
      "type": "event"
    },
    {
      "inputs": [],
      "name": "CREDIT",
      "outputs": [
        {
          "internalType": "uint256",
          "name": "",
          "type": "uint256"
        }
      ],
      "stateMutability": "view",
      "type": "function"
    },
    {
      "inputs": [
        {
          "internalType": "uint256",
          "name": "escrowId",
          "type": "uint256"
        }
      ],
      "name": "accept",
      "outputs": [],
      "stateMutability": "nonpayable",
      "type": "function"
    },
    {
      "inputs": [
        {
          "internalType": "uint256",
          "name": "",
          "type": "uint256"
        },
        {
          "internalType": "address",
          "name": "",
          "type": "address"
        }
      ],
      "name": "accepted",
      "outputs": [
        {
          "internalType": "bool",
          "name": "",
          "type": "bool"
        }
      ],
      "stateMutability": "view",
      "type": "function"
    },
    {
      "inputs": [
        {
          "internalType": "uint256",
          "name": "escrowId",
          "type": "uint256"
        }
      ],
      "name": "cancelEscrow",
      "outputs": [],
      "stateMutability": "nonpayable",
      "type": "function"
    },
    {
      "inputs": [
        {
          "internalType": "address payable",
          "name": "merchant",
          "type": "address"
        },
        {
          "internalType": "address[]",
          "name": "otherParticipants",
          "type": "address[]"
        },
        {
          "internalType": "uint256[]",
          "name": "otherShares",
          "type": "uint256[]"
        },
        {
          "internalType": "uint256",
          "name": "total",
          "type": "uint256"
        }
      ],
      "name": "createEscrow",
      "outputs": [
        {
          "internalType": "uint256",
          "name": "",
          "type": "uint256"
        }
      ],
      "stateMutability": "nonpayable",
      "type": "function"
    },
    {
      "inputs": [
        {
          "internalType": "address",
          "name": "",
          "type": "address"
        }
      ],
      "name": "credit",
      "outputs": [
        {
          "internalType": "uint256",
          "name": "",
          "type": "uint256"
        }
      ],
      "stateMutability": "view",
      "type": "function"
    },
    {
      "inputs": [],
      "name": "escrowCount",
      "outputs": [
        {
          "internalType": "uint256",
          "name": "",
          "type": "uint256"
        }
      ],
      "stateMutability": "view",
      "type": "function"
    },
    {
      "inputs": [
        {
          "internalType": "uint256",
          "name": "escrowId",
          "type": "uint256"
        }
      ],
      "name": "escrowDetails",
      "outputs": [
        {
          "internalType": "address",
          "name": "host",
          "type": "address"
        },
        {
          "internalType": "address",
          "name": "merchant",
          "type": "address"
        },
        {
          "internalType": "uint256",
          "name": "total",
          "type": "uint256"
        },
        {
          "internalType": "enum LetsPayHBAR_V1_UUPS.EscrowStatus",
          "name": "status",
          "type": "uint8"
        },
        {
          "internalType": "address[]",
          "name": "participants",
          "type": "address[]"
        },
        {
          "internalType": "uint256[]",
          "name": "shares",
          "type": "uint256[]"
        }
      ],
      "stateMutability": "view",
      "type": "function"
    },
    {
      "inputs": [
        {
          "internalType": "uint256",
          "name": "",
          "type": "uint256"
        }
      ],
      "name": "escrows",
      "outputs": [
        {
          "internalType": "address",
          "name": "host",
          "type": "address"
        },
        {
          "internalType": "address payable",
          "name": "merchant",
          "type": "address"
        },
        {
          "internalType": "uint256",
          "name": "total",
          "type": "uint256"
        },
        {
          "internalType": "enum LetsPayHBAR_V1_UUPS.EscrowStatus",
          "name": "status",
          "type": "uint8"
        }
      ],
      "stateMutability": "view",
      "type": "function"
    },
    {
      "inputs": [],
      "name": "fundContract",
      "outputs": [],
      "stateMutability": "payable",
      "type": "function"
    },
    {
      "inputs": [
        {
          "internalType": "address",
          "name": "user",
          "type": "address"
        }
      ],
      "name": "getPendingEscrowsFor",
      "outputs": [
        {
          "internalType": "uint256[]",
          "name": "",
          "type": "uint256[]"
        }
      ],
      "stateMutability": "view",
      "type": "function"
    },
    {
      "inputs": [
        {
          "internalType": "address",
          "name": "user",
          "type": "address"
        }
      ],
      "name": "getUserHistory",
      "outputs": [
        {
          "internalType": "uint256[]",
          "name": "ids",
          "type": "uint256[]"
        },
        {
          "internalType": "address[]",
          "name": "hosts",
          "type": "address[]"
        },
        {
          "internalType": "address[]",
          "name": "merchants",
          "type": "address[]"
        },
        {
          "internalType": "uint256[]",
          "name": "totals",
          "type": "uint256[]"
        },
        {
          "internalType": "enum LetsPayHBAR_V1_UUPS.EscrowStatus[]",
          "name": "statuses",
          "type": "uint8[]"
        },
        {
          "internalType": "address[][]",
          "name": "participantsList",
          "type": "address[][]"
        },
        {
          "internalType": "uint256[][]",
          "name": "sharesList",
          "type": "uint256[][]"
        }
      ],
      "stateMutability": "view",
      "type": "function"
    },
    {
      "inputs": [
        {
          "internalType": "address",
          "name": "owner_",
          "type": "address"
        }
      ],
      "name": "initialize",
      "outputs": [],
      "stateMutability": "nonpayable",
      "type": "function"
    },
    {
      "inputs": [],
      "name": "owner",
      "outputs": [
        {
          "internalType": "address",
          "name": "",
          "type": "address"
        }
      ],
      "stateMutability": "view",
      "type": "function"
    },
    {
      "inputs": [],
      "name": "proxiableUUID",
      "outputs": [
        {
          "internalType": "bytes32",
          "name": "",
          "type": "bytes32"
        }
      ],
      "stateMutability": "view",
      "type": "function"
    },
    {
      "inputs": [],
      "name": "repayCredit",
      "outputs": [],
      "stateMutability": "payable",
      "type": "function"
    },
    {
      "inputs": [
        {
          "internalType": "address",
          "name": "",
          "type": "address"
        }
      ],
      "name": "signedUp",
      "outputs": [
        {
          "internalType": "bool",
          "name": "",
          "type": "bool"
        }
      ],
      "stateMutability": "view",
      "type": "function"
    },
    {
      "inputs": [],
      "name": "signup",
      "outputs": [],
      "stateMutability": "nonpayable",
      "type": "function"
    },
    {
      "inputs": [
        {
          "internalType": "address",
          "name": "newImplementation",
          "type": "address"
        }
      ],
      "name": "upgradeTo",
      "outputs": [],
      "stateMutability": "nonpayable",
      "type": "function"
    },
    {
      "inputs": [
        {
          "internalType": "address",
          "name": "newImplementation",
          "type": "address"
        },
        {
          "internalType": "bytes",
          "name": "data",
          "type": "bytes"
        }
      ],
      "name": "upgradeToAndCall",
      "outputs": [],
      "stateMutability": "payable",
      "type": "function"
    },
    {
      "stateMutability": "payable",
      "type": "receive"
    }
  ],
  "bytecode": "0x60a060405230608052348015610013575f5ffd5b505f805460ff1916600117905560805161254161005b5f395f818161099f015281816109df01528181610ab301528181610af3015281816117a001526117e001526125415ff3fe60806040526004361061011e575f3560e01c80638da5cb5b1161009d578063c7c17f1011610062578063c7c17f1014610361578063d5d44d801461039a578063e0182436146103c5578063e688013f146103e4578063f1357fa914610400575f5ffd5b80638da5cb5b146102e3578063a0cba06e1461031e578063b7bc0f7314610326578063bd097e211461033a578063c4d66de814610342575f5ffd5b80634f1ef286116100e35780634f1ef286146102415780634fb3d3b11461025457806352d1902d146102865780635a9ca77b146102af578063675ac67a146102ce575f5ffd5b8063012f52ee1461012957806305833f401461019257806319b05f49146101c35780633659cfe6146101e45780633721e02914610203575f5ffd5b3661012557005b5f5ffd5b348015610134575f5ffd5b50610179610143366004611eaa565b60046020525f908152604090208054600182015460028301546003909301546001600160a01b0392831693919092169160ff1684565b6040516101899493929190611ef5565b60405180910390f35b34801561019d575f5ffd5b506101b16101ac366004611eaa565b61042c565b60405161018996959493929190611f9d565b3480156101ce575f5ffd5b506101e26101dd366004611eaa565b610533565b005b3480156101ef575f5ffd5b506101e26101fe36600461200d565b61094a565b34801561020e575f5ffd5b5061023161021d36600461200d565b60036020525f908152604090205460ff1681565b6040519015158152602001610189565b6101e261024f36600461202f565b610a5e565b34801561025f575f5ffd5b5061027361026e36600461200d565b610b9d565b60405161018997969594939291906121ae565b348015610291575f5ffd5b505f5160206124ec5f395f51905f525b604051908152602001610189565b3480156102ba575f5ffd5b506102a16102c93660046122b8565b6110fa565b3480156102d9575f5ffd5b506102a160015481565b3480156102ee575f5ffd5b505f546103069061010090046001600160a01b031681565b6040516001600160a01b039091168152602001610189565b6101e2611552565b348015610331575f5ffd5b506101e261162b565b6101e26116e3565b34801561034d575f5ffd5b506101e261035c36600461200d565b61174f565b34801561036c575f5ffd5b5061023161037b366004612340565b600560209081525f928352604080842090915290825290205460ff1681565b3480156103a5575f5ffd5b506102a16103b436600461200d565b60026020525f908152604090205481565b3480156103d0575f5ffd5b506101e26103df366004611eaa565b6118aa565b3480156103ef575f5ffd5b506102a1680ad78ebc5ac620000081565b34801561040b575f5ffd5b5061041f61041a36600461200d565b6119fe565b604051610189919061236e565b5f81815260046020818152604080842080546001820154600283015460038401549684018054865181890281018901909752808752899889988998606098899890976001600160a01b0391821697911695909460ff90941693909260058901929184918301828280156104c657602002820191905f5260205f20905b81546001600160a01b031681526001909101906020018083116104a8575b505050505091508080548060200260200160405190810160405280929190818152602001828054801561051657602002820191905f5260205f20905b815481526020019060010190808311610502575b505050505090509650965096509650965096505091939550919395565b5f54600160a81b900460ff16156105655760405162461bcd60e51b815260040161055c90612380565b60405180910390fd5b5f805460ff60a81b1916600160a81b178155818152600460205260409020600160038083015460ff169081111561059e5761059e611ec1565b146105d95760405162461bcd60e51b815260206004820152600b60248201526a6e6f742070617961626c6560a81b604482015260640161055c565b80546001600160a01b031633036106235760405162461bcd60e51b815260206004820152600e60248201526d1a1bdcdd08185d5d1bcb5c185a5960921b604482015260640161055c565b5f195f5b600483015481101561067b57336001600160a01b0316836004018281548110610652576106526123a3565b5f918252602090912001546001600160a01b0316036106735780915061067b565b600101610627565b505f1981036106be5760405162461bcd60e51b815260206004820152600f60248201526e1b9bdd081c185c9d1a58da5c185b9d608a1b604482015260640161055c565b5f83815260056020908152604080832033845290915290205460ff161561071a5760405162461bcd60e51b815260206004820152601060248201526f185b1c9958591e481858d8d95c1d195960821b604482015260640161055c565b5f826005018281548110610730576107306123a3565b5f91825260208083209091015433835260029091526040909120549091508111156107935760405162461bcd60e51b81526020600482015260136024820152721a5b9cdd59999a58da595b9d0818dc99591a5d606a1b604482015260640161055c565b335f90815260026020526040812080548392906107b19084906123cb565b909155505082546001600160a01b03165f90815260026020526040812080548392906107de9084906123e4565b90915550505f8481526005602090815260408083203380855290835292819020805460ff19166001179055805192835290820183905285917f9a6711ea334ee7e91fc368900d2d9822a7eb631cdadbaa317d46ba75006243ee910160405180910390a260015f5b60048501548110156108f65784546004860180546001600160a01b039092169183908110610875576108756123a3565b5f918252602090912001546001600160a01b0316148015906108e157505f868152600560205260408120600487018054919291849081106108b8576108b86123a3565b5f9182526020808320909101546001600160a01b0316835282019290925260400190205460ff16155b156108ee575f91506108f6565b600101610845565b5080156109375760038401805460ff1916600217905560405185907f3fb211d55ece51bd2ce6d1abaf29866ac8b6effbbc771f0eab5e7a9912763e58905f90a25b50505f805460ff60a81b19169055505050565b5f5461010090046001600160a01b031633146109955760405162461bcd60e51b815260206004820152600a6024820152696f776e6572206f6e6c7960b01b604482015260640161055c565b6001600160a01b037f00000000000000000000000000000000000000000000000000000000000000001630036109dd5760405162461bcd60e51b815260040161055c906123f7565b7f00000000000000000000000000000000000000000000000000000000000000006001600160a01b0316610a1c5f5160206124ec5f395f51905f525490565b6001600160a01b031614610a425760405162461bcd60e51b815260040161055c9061242e565b610a5b8160405180602001604052805f8152505f611cad565b50565b5f5461010090046001600160a01b03163314610aa95760405162461bcd60e51b815260206004820152600a6024820152696f776e6572206f6e6c7960b01b604482015260640161055c565b6001600160a01b037f0000000000000000000000000000000000000000000000000000000000000000163003610af15760405162461bcd60e51b815260040161055c906123f7565b7f00000000000000000000000000000000000000000000000000000000000000006001600160a01b0316610b305f5160206124ec5f395f51905f525490565b6001600160a01b031614610b565760405162461bcd60e51b815260040161055c9061242e565b610b988383838080601f0160208091040260200160405190810160405280939291908181526020018383808284375f9201919091525060019250611cad915050565b505050565b60608080808080805f60015b6001548111610c5a575f81815260046020526040902080546001600160a01b03808d16911603610be55782610bdd8161245d565b935050610c47565b5f5b6004820154811015610c45578b6001600160a01b0316826004018281548110610c1257610c126123a3565b5f918252602090912001546001600160a01b031603610c3d5783610c358161245d565b945050610c45565b600101610be7565b505b5080610c528161245d565b915050610ba9565b50806001600160401b03811115610c7357610c73612475565b604051908082528060200260200182016040528015610c9c578160200160208202803683370190505b509750806001600160401b03811115610cb757610cb7612475565b604051908082528060200260200182016040528015610ce0578160200160208202803683370190505b509650806001600160401b03811115610cfb57610cfb612475565b604051908082528060200260200182016040528015610d24578160200160208202803683370190505b509550806001600160401b03811115610d3f57610d3f612475565b604051908082528060200260200182016040528015610d68578160200160208202803683370190505b509450806001600160401b03811115610d8357610d83612475565b604051908082528060200260200182016040528015610dac578160200160208202803683370190505b509350806001600160401b03811115610dc757610dc7612475565b604051908082528060200260200182016040528015610dfa57816020015b6060815260200190600190039081610de55790505b509250806001600160401b03811115610e1557610e15612475565b604051908082528060200260200182016040528015610e4857816020015b6060815260200190600190039081610e335790505b5091505f60015b60015481116110ec575f81815260046020526040812080549091906001600160a01b03808f16911603610e8457506001610edd565b5f5b6004830154811015610edb578d6001600160a01b0316836004018281548110610eb157610eb16123a3565b5f918252602090912001546001600160a01b031603610ed35760019150610edb565b600101610e86565b505b80156110d757828c8581518110610ef657610ef66123a3565b602090810291909101015281548b516001600160a01b03909116908c9086908110610f2357610f236123a3565b6001600160a01b03928316602091820292909201015260018301548b519116908b9086908110610f5557610f556123a3565b60200260200101906001600160a01b031690816001600160a01b0316815250508160020154898581518110610f8c57610f8c6123a3565b60209081029190910101526003820154885160ff90911690899086908110610fb657610fb66123a3565b60200260200101906003811115610fcf57610fcf611ec1565b90816003811115610fe257610fe2611ec1565b9052506004820180546040805160208084028201810190925282815292919083018282801561103857602002820191905f5260205f20905b81546001600160a01b0316815260019091019060200180831161101a575b505050505087858151811061104f5761104f6123a3565b6020026020010181905250816005018054806020026020016040519081016040528092919081815260200182805480156110a657602002820191905f5260205f20905b815481526020019060010190808311611092575b50505050508685815181106110bd576110bd6123a3565b602002602001018190525083806110d39061245d565b9450505b505080806110e49061245d565b915050610e4f565b505050919395979092949650565b5f8054600160a81b900460ff16156111245760405162461bcd60e51b815260040161055c90612380565b5f805460ff60a81b1916600160a81b1790558483146111745760405162461bcd60e51b815260206004820152600c60248201526b0d8cadc40dad2e6dac2e8c6d60a31b604482015260640161055c565b5f805b848110156111ad57858582818110611191576111916123a3565b90506020020135826111a391906123e4565b9150600101611177565b50828111156111ef5760405162461bcd60e51b815260206004820152600e60248201526d73686172657320746f6f2062696760901b604482015260640161055c565b5f6111fa82856123cb565b335f9081526002602052604090205490915081111561125b5760405162461bcd60e51b815260206004820152601860248201527f696e73756666696369656e7420686f7374206372656469740000000000000000604482015260640161055c565b834710156112a25760405162461bcd60e51b8152602060048201526014602482015273636f6e7472616374206c61636b732066756e647360601b604482015260640161055c565b335f90815260026020526040812080548692906112c09084906123cb565b90915550506040515f906001600160a01b038b169086908381818185875af1925050503d805f811461130d576040519150601f19603f3d011682016040523d82523d5f602084013e611312565b606091505b50509050806113635760405162461bcd60e51b815260206004820152601760248201527f6d65726368616e74207061796d656e74206661696c6564000000000000000000604482015260640161055c565b60018054905f6113728361245d565b9091555050600180545f9081526004602052604090208054336001600160a01b031991821617825581830180549091166001600160a01b038e161790556002810187905560038101805491929160ff191682800217905550600481018054600181810183555f928352602080842090920180546001600160a01b0319163317905560058401805491820181558352908220018490555b898110156114ab57816004018b8b83818110611426576114266123a3565b905060200201602081019061143b919061200d565b81546001810183555f928352602090922090910180546001600160a01b0319166001600160a01b0390921691909117905560058201898983818110611482576114826123a3565b8354600180820186555f9586526020958690209290950293909301359201919091555001611408565b506001546040518781526001600160a01b038d169133917f9405ad0a6208539879349284d71265479b1623846f70303da1f9890d6e8c10a79060200160405180910390a4600154604080516001600160a01b038e168152602081018990527faec42473838b108a1d631c8f2909f647210a84c44fc36e0d0221d72527dcd9a0910160405180910390a250506001545f805460ff60a81b191690559998505050505050505050565b5f54600160a81b900460ff161561157b5760405162461bcd60e51b815260040161055c90612380565b5f805460ff60a81b1916600160a81b179055346115c55760405162461bcd60e51b81526020600482015260086024820152676e6f2076616c756560c01b604482015260640161055c565b335f90815260026020526040812080543492906115e39084906123e4565b909155505060405134815233907fed55a07b9c8cf631d4a3a7785bca7730c88c45fac4085088627cf909c6250ea99060200160405180910390a25f805460ff60a81b19169055565b335f9081526003602052604090205460ff161561167e5760405162461bcd60e51b81526020600482015260116024820152700616c7265616479207369676e656420757607c1b604482015260640161055c565b335f818152600360209081526040808320805460ff191660011790556002825291829020680ad78ebc5ac62000009081905591519182527f4098c370c038514e047bc0a8244bac331dcca27d502a31a6a2c894de0a0ef32391015b60405180910390a2565b5f341161171d5760405162461bcd60e51b81526020600482015260086024820152676e6f2076616c756560c01b604482015260640161055c565b60405134815233907f0939f6f4877faf071412e527bc4c6d0bd65ad077e52b57334f7765265647a7f1906020016116d9565b5f5460ff161561178a5760405162461bcd60e51b81526020600482015260066024820152651a5b9a5d195960d21b604482015260640161055c565b5f805460ff191660011790556001600160a01b037f00000000000000000000000000000000000000000000000000000000000000001630036117de5760405162461bcd60e51b815260040161055c906123f7565b7f00000000000000000000000000000000000000000000000000000000000000006001600160a01b031661181d5f5160206124ec5f395f51905f525490565b6001600160a01b0316146118435760405162461bcd60e51b815260040161055c9061242e565b6001600160a01b0381166118835760405162461bcd60e51b815260206004820152600760248201526606f776e65723d360cc1b604482015260640161055c565b5f80546001600160a01b0390921661010002610100600160a81b0319909216919091179055565b5f54600160a81b900460ff16156118d35760405162461bcd60e51b815260040161055c90612380565b5f805460ff60a81b1916600160a81b1781558181526004602052604090208054336001600160a01b03909116148061191957505f5461010090046001600160a01b031633145b6119535760405162461bcd60e51b815260206004820152600b60248201526a1b9bdd08185b1b1bddd95960aa1b604482015260640161055c565b600160038083015460ff169081111561196e5761196e611ec1565b146119a95760405162461bcd60e51b815260206004820152600b60248201526a77726f6e6720737461746560a81b604482015260640161055c565b6003818101805460ff1916909117905560028082015482546001600160a01b03165f908152602092909252604082208054919290916119e99084906123e4565b90915550505f805460ff60a81b191690555050565b60605f60015b6001548111611b20575f818152600460205260409020600160038083015460ff1690811115611a3557611a35611ec1565b03611b0d575f5b6004820154811015611b0b57856001600160a01b0316826004018281548110611a6757611a676123a3565b5f918252602090912001546001600160a01b0316148015611abe575081546004830180546001600160a01b039092169183908110611aa757611aa76123a3565b5f918252602090912001546001600160a01b031614155b8015611aec57505f8381526005602090815260408083206001600160a01b038a16845290915290205460ff16155b15611b035783611afb8161245d565b945050611b0b565b600101611a3c565b505b5080611b188161245d565b915050611a04565b505f816001600160401b03811115611b3a57611b3a612475565b604051908082528060200260200182016040528015611b63578160200160208202803683370190505b5090505f60015b6001548111611ca3575f818152600460205260409020600160038083015460ff1690811115611b9b57611b9b611ec1565b03611c90575f5b6004820154811015611c8e57876001600160a01b0316826004018281548110611bcd57611bcd6123a3565b5f918252602090912001546001600160a01b0316148015611c24575081546004830180546001600160a01b039092169183908110611c0d57611c0d6123a3565b5f918252602090912001546001600160a01b031614155b8015611c5257505f8381526005602090815260408083206001600160a01b038c16845290915290205460ff16155b15611c8657828585611c638161245d565b965081518110611c7557611c756123a3565b602002602001018181525050611c8e565b600101611ba2565b505b5080611c9b8161245d565b915050611b6a565b5090949350505050565b5f836001600160a01b03163b11611cfd5760405162461bcd60e51b815260206004820152601460248201527315555414ce881a5b5c1b080858dbdb9d1c9858dd60621b604482015260640161055c565b60408051600481526024810182526020810180516001600160e01b03166352d1902d60e01b17905290515f9182916001600160a01b03871691611d3f91612489565b5f60405180830381855afa9150503d805f8114611d77576040519150601f19603f3d011682016040523d82523d5f602084013e611d7c565b606091505b5091509150818015611d8f575080516020145b8015611dbc57505f5160206124ec5f395f51905f525f1b81806020019051810190611dba919061249f565b145b611dfd5760405162461bcd60e51b815260206004820152601260248201527115555414ce881a5b9d985b1a59081555525160721b604482015260640161055c565b611e12855f5160206124ec5f395f51905f5255565b5f84511180611e1e5750825b15611ea3575f5f866001600160a01b031686604051611e3d9190612489565b5f60405180830381855af49150503d805f8114611e75576040519150601f19603f3d011682016040523d82523d5f602084013e611e7a565b606091505b5091509150818190611e9f5760405162461bcd60e51b815260040161055c91906124b6565b5050505b5050505050565b5f60208284031215611eba575f5ffd5b5035919050565b634e487b7160e01b5f52602160045260245ffd5b60048110611ef157634e487b7160e01b5f52602160045260245ffd5b9052565b6001600160a01b038581168252841660208201526040810183905260808101611f216060830184611ed5565b95945050505050565b5f8151808452602084019350602083015f5b82811015611f635781516001600160a01b0316865260209586019590910190600101611f3c565b5093949350505050565b5f8151808452602084019350602083015f5b82811015611f63578151865260209586019590910190600101611f7f565b6001600160a01b0387811682528616602082015260408101859052611fc56060820185611ed5565b60c060808201525f611fda60c0830185611f2a565b82810360a0840152611fec8185611f6d565b9998505050505050505050565b6001600160a01b0381168114610a5b575f5ffd5b5f6020828403121561201d575f5ffd5b813561202881611ff9565b9392505050565b5f5f5f60408486031215612041575f5ffd5b833561204c81611ff9565b925060208401356001600160401b03811115612066575f5ffd5b8401601f81018613612076575f5ffd5b80356001600160401b0381111561208b575f5ffd5b86602082840101111561209c575f5ffd5b939660209190910195509293505050565b5f82825180855260208501945060208160051b830101602085015f5b8381101561212c57848303601f19018852815180518085526020918201918501905f5b818110156121135783516001600160a01b03168352602093840193909201916001016120ec565b50506020998a01999094509290920191506001016120c9565b50909695505050505050565b5f82825180855260208501945060208160051b830101602085015f5b8381101561212c57848303601f19018852815180518085526020918201918501905f5b81811015612195578351835260209384019390920191600101612177565b50506020998a0199909450929092019150600101612154565b60e081525f6121c060e083018a611f6d565b82810360208401526121d2818a611f2a565b905082810360408401526121e68189611f2a565b905082810360608401526121fa8188611f6d565b8381036080850152865180825260208089019350909101905f5b8181101561223a57612227838551611ed5565b6020938401939290920191600101612214565b505083810360a085015261224e81876120ad565b91505082810360c08401526122638185612138565b9a9950505050505050505050565b5f5f83601f840112612281575f5ffd5b5081356001600160401b03811115612297575f5ffd5b6020830191508360208260051b85010111156122b1575f5ffd5b9250929050565b5f5f5f5f5f5f608087890312156122cd575f5ffd5b86356122d881611ff9565b955060208701356001600160401b038111156122f2575f5ffd5b6122fe89828a01612271565b90965094505060408701356001600160401b0381111561231c575f5ffd5b61232889828a01612271565b979a9699509497949695606090950135949350505050565b5f5f60408385031215612351575f5ffd5b82359150602083013561236381611ff9565b809150509250929050565b602081525f6120286020830184611f6d565b6020808252600990820152681c99595b9d1c985b9d60ba1b604082015260600190565b634e487b7160e01b5f52603260045260245ffd5b634e487b7160e01b5f52601160045260245ffd5b818103818111156123de576123de6123b7565b92915050565b808201808211156123de576123de6123b7565b60208082526017908201527f555550533a2064656c656761746563616c6c206f6e6c79000000000000000000604082015260600190565b60208082526015908201527415555414ce881b9bdd081858dd1a5d99481a5b5c1b605a1b604082015260600190565b5f6001820161246e5761246e6123b7565b5060010190565b634e487b7160e01b5f52604160045260245ffd5b5f82518060208501845e5f920191825250919050565b5f602082840312156124af575f5ffd5b5051919050565b602081525f82518060208401528060208501604085015e5f604082850101526040601f19601f8301168401019150509291505056fe360894a13ba1a3210667c828492db98dca3e2076cc3735a920a3ca505d382bbca2646970667358221220eb93bd6e7bb0d5a9de068b545c606e3c2865ce5cb00098476a8ed1844b05a53464736f6c634300081c0033",
  "linkReferences": {},
  "deployedLinkReferences": {},
  "immutableReferences": {
    "60": [
      {
        "length": 32,
        "start": 2463
      },
      {
        "length": 32,
        "start": 2527
      },
      {
        "length": 32,
        "start": 2739
      },
      {
        "length": 32,
        "start": 2803
      },
      {
        "length": 32,
        "start": 6048
      },
      {
        "length": 32,
        "start": 6112
      }
    ]
  },
  "inputSourceName": "project/contracts/LetsPayHBAR_V1_UUPS.sol",
  "buildInfoId": "solc-0_8_28-cc0bfb494df1f55cb7e38e18a1d37067fb7daa29"
}